{
  "_format": "hh-sol-artifact-1",
  "contractName": "Upbox",
  "sourceName": "contracts/Upbox.sol",
  "abi": [
    {
      "inputs": [],
      "stateMutability": "nonpayable",
      "type": "constructor"
    },
    {
      "anonymous": false,
      "inputs": [
        {
          "indexed": true,
          "internalType": "address",
          "name": "owner",
          "type": "address"
        },
        {
          "indexed": true,
          "internalType": "address",
          "name": "approved",
          "type": "address"
        },
        {
          "indexed": true,
          "internalType": "uint256",
          "name": "tokenId",
          "type": "uint256"
        }
      ],
      "name": "Approval",
      "type": "event"
    },
    {
      "anonymous": false,
      "inputs": [
        {
          "indexed": true,
          "internalType": "address",
          "name": "owner",
          "type": "address"
        },
        {
          "indexed": true,
          "internalType": "address",
          "name": "operator",
          "type": "address"
        },
        {
          "indexed": false,
          "internalType": "bool",
          "name": "approved",
          "type": "bool"
        }
      ],
      "name": "ApprovalForAll",
      "type": "event"
    },
    {
      "anonymous": false,
      "inputs": [
        {
          "indexed": false,
          "internalType": "address",
          "name": "_to",
          "type": "address"
        },
        {
          "indexed": false,
          "internalType": "uint256",
          "name": "_tokenId",
          "type": "uint256"
        }
      ],
      "name": "FileShared",
      "type": "event"
    },
    {
      "anonymous": false,
      "inputs": [
        {
          "indexed": false,
          "internalType": "address",
          "name": "_user",
          "type": "address"
        },
        {
          "indexed": false,
          "internalType": "uint256",
          "name": "_tokenId",
          "type": "uint256"
        }
      ],
      "name": "FileUploaded",
      "type": "event"
    },
    {
      "anonymous": false,
      "inputs": [
        {
          "indexed": true,
          "internalType": "address",
          "name": "previousOwner",
          "type": "address"
        },
        {
          "indexed": true,
          "internalType": "address",
          "name": "newOwner",
          "type": "address"
        }
      ],
      "name": "OwnershipTransferred",
      "type": "event"
    },
    {
      "anonymous": false,
      "inputs": [
        {
          "indexed": true,
          "internalType": "address",
          "name": "from",
          "type": "address"
        },
        {
          "indexed": true,
          "internalType": "address",
          "name": "to",
          "type": "address"
        },
        {
          "indexed": true,
          "internalType": "uint256",
          "name": "tokenId",
          "type": "uint256"
        }
      ],
      "name": "Transfer",
      "type": "event"
    },
    {
      "inputs": [
        {
          "internalType": "address",
          "name": "_userAddress",
          "type": "address"
        }
      ],
      "name": "addblackListedUser",
      "outputs": [],
      "stateMutability": "nonpayable",
      "type": "function"
    },
    {
      "inputs": [
        {
          "internalType": "address",
          "name": "to",
          "type": "address"
        },
        {
          "internalType": "uint256",
          "name": "tokenId",
          "type": "uint256"
        }
      ],
      "name": "approve",
      "outputs": [],
      "stateMutability": "nonpayable",
      "type": "function"
    },
    {
      "inputs": [
        {
          "internalType": "address",
          "name": "owner",
          "type": "address"
        }
      ],
      "name": "balanceOf",
      "outputs": [
        {
          "internalType": "uint256",
          "name": "",
          "type": "uint256"
        }
      ],
      "stateMutability": "view",
      "type": "function"
    },
    {
      "inputs": [
        {
          "internalType": "address",
          "name": "",
          "type": "address"
        }
      ],
      "name": "blackListedUsers",
      "outputs": [
        {
          "internalType": "bool",
          "name": "",
          "type": "bool"
        }
      ],
      "stateMutability": "view",
      "type": "function"
    },
    {
      "inputs": [],
      "name": "destroy",
      "outputs": [],
      "stateMutability": "nonpayable",
      "type": "function"
    },
    {
      "inputs": [],
      "name": "getAllPublicTokens",
      "outputs": [
        {
          "internalType": "uint256[]",
          "name": "",
          "type": "uint256[]"
        }
      ],
      "stateMutability": "view",
      "type": "function"
    },
    {
      "inputs": [
        {
          "internalType": "uint256",
          "name": "tokenId",
          "type": "uint256"
        }
      ],
      "name": "getApproved",
      "outputs": [
        {
          "internalType": "address",
          "name": "",
          "type": "address"
        }
      ],
      "stateMutability": "view",
      "type": "function"
    },
    {
      "inputs": [],
      "name": "getMyPrivateTokens",
      "outputs": [
        {
          "internalType": "uint256[]",
          "name": "",
          "type": "uint256[]"
        }
      ],
      "stateMutability": "view",
      "type": "function"
    },
    {
      "inputs": [],
      "name": "getMyPublicTokens",
      "outputs": [
        {
          "internalType": "uint256[]",
          "name": "",
          "type": "uint256[]"
        }
      ],
      "stateMutability": "view",
      "type": "function"
    },
    {
      "inputs": [],
      "name": "getMyRecievedTokens",
      "outputs": [
        {
          "internalType": "uint256[]",
          "name": "",
          "type": "uint256[]"
        }
      ],
      "stateMutability": "view",
      "type": "function"
    },
    {
      "inputs": [
        {
          "internalType": "address",
          "name": "owner",
          "type": "address"
        },
        {
          "internalType": "address",
          "name": "operator",
          "type": "address"
        }
      ],
      "name": "isApprovedForAll",
      "outputs": [
        {
          "internalType": "bool",
          "name": "",
          "type": "bool"
        }
      ],
      "stateMutability": "view",
      "type": "function"
    },
    {
      "inputs": [],
      "name": "name",
      "outputs": [
        {
          "internalType": "string",
          "name": "",
          "type": "string"
        }
      ],
      "stateMutability": "view",
      "type": "function"
    },
    {
      "inputs": [],
      "name": "owner",
      "outputs": [
        {
          "internalType": "address",
          "name": "",
          "type": "address"
        }
      ],
      "stateMutability": "view",
      "type": "function"
    },
    {
      "inputs": [
        {
          "internalType": "uint256",
          "name": "tokenId",
          "type": "uint256"
        }
      ],
      "name": "ownerOf",
      "outputs": [
        {
          "internalType": "address",
          "name": "",
          "type": "address"
        }
      ],
      "stateMutability": "view",
      "type": "function"
    },
    {
      "inputs": [
        {
          "internalType": "uint256",
          "name": "",
          "type": "uint256"
        }
      ],
      "name": "publicTokensIds",
      "outputs": [
        {
          "internalType": "uint256",
          "name": "",
          "type": "uint256"
        }
      ],
      "stateMutability": "view",
      "type": "function"
    },
    {
      "inputs": [
        {
          "internalType": "uint256",
          "name": "_index",
          "type": "uint256"
        }
      ],
      "name": "removePublicTokens",
      "outputs": [],
      "stateMutability": "nonpayable",
      "type": "function"
    },
    {
      "inputs": [
        {
          "internalType": "address",
          "name": "_userAddress",
          "type": "address"
        }
      ],
      "name": "removeUserFromblackList",
      "outputs": [],
      "stateMutability": "nonpayable",
      "type": "function"
    },
    {
      "inputs": [],
      "name": "renounceOwnership",
      "outputs": [],
      "stateMutability": "nonpayable",
      "type": "function"
    },
    {
      "inputs": [
        {
          "internalType": "address",
          "name": "from",
          "type": "address"
        },
        {
          "internalType": "address",
          "name": "to",
          "type": "address"
        },
        {
          "internalType": "uint256",
          "name": "tokenId",
          "type": "uint256"
        }
      ],
      "name": "safeTransferFrom",
      "outputs": [],
      "stateMutability": "nonpayable",
      "type": "function"
    },
    {
      "inputs": [
        {
          "internalType": "address",
          "name": "from",
          "type": "address"
        },
        {
          "internalType": "address",
          "name": "to",
          "type": "address"
        },
        {
          "internalType": "uint256",
          "name": "tokenId",
          "type": "uint256"
        },
        {
          "internalType": "bytes",
          "name": "data",
          "type": "bytes"
        }
      ],
      "name": "safeTransferFrom",
      "outputs": [],
      "stateMutability": "nonpayable",
      "type": "function"
    },
    {
      "inputs": [
        {
          "internalType": "address",
          "name": "operator",
          "type": "address"
        },
        {
          "internalType": "bool",
          "name": "approved",
          "type": "bool"
        }
      ],
      "name": "setApprovalForAll",
      "outputs": [],
      "stateMutability": "nonpayable",
      "type": "function"
    },
    {
      "inputs": [
        {
          "internalType": "address",
          "name": "_to",
          "type": "address"
        },
        {
          "internalType": "uint256",
          "name": "_tokenId",
          "type": "uint256"
        }
      ],
      "name": "shareToken",
      "outputs": [],
      "stateMutability": "nonpayable",
      "type": "function"
    },
    {
      "inputs": [
        {
          "internalType": "bytes4",
          "name": "interfaceId",
          "type": "bytes4"
        }
      ],
      "name": "supportsInterface",
      "outputs": [
        {
          "internalType": "bool",
          "name": "",
          "type": "bool"
        }
      ],
      "stateMutability": "view",
      "type": "function"
    },
    {
      "inputs": [],
      "name": "symbol",
      "outputs": [
        {
          "internalType": "string",
          "name": "",
          "type": "string"
        }
      ],
      "stateMutability": "view",
      "type": "function"
    },
    {
      "inputs": [
        {
          "internalType": "uint256",
          "name": "tokenId",
          "type": "uint256"
        }
      ],
      "name": "tokenURI",
      "outputs": [
        {
          "internalType": "string",
          "name": "",
          "type": "string"
        }
      ],
      "stateMutability": "view",
      "type": "function"
    },
    {
      "inputs": [
        {
          "internalType": "address",
          "name": "from",
          "type": "address"
        },
        {
          "internalType": "address",
          "name": "to",
          "type": "address"
        },
        {
          "internalType": "uint256",
          "name": "tokenId",
          "type": "uint256"
        }
      ],
      "name": "transferFrom",
      "outputs": [],
      "stateMutability": "nonpayable",
      "type": "function"
    },
    {
      "inputs": [
        {
          "internalType": "address",
          "name": "newOwner",
          "type": "address"
        }
      ],
      "name": "transferOwnership",
      "outputs": [],
      "stateMutability": "nonpayable",
      "type": "function"
    },
    {
      "inputs": [
        {
          "internalType": "string",
          "name": "input",
          "type": "string"
        },
        {
          "internalType": "bool",
          "name": "_isPrivate",
          "type": "bool"
        }
      ],
      "name": "uploadFile",
      "outputs": [],
      "stateMutability": "nonpayable",
      "type": "function"
    }
  ],
  "bytecode": "0x60806040523480156200001157600080fd5b50604051806040016040528060058152602001640aae0c4def60db1b815250604051806040016040528060058152602001645072696d6560d81b815250816000908051906020019062000066929190620000f5565b5080516200007c906001906020840190620000f5565b50505062000099620000936200009f60201b60201c565b620000a3565b620001d8565b3390565b600680546001600160a01b038381166001600160a01b0319831681179093556040519116919082907f8be0079c531659141344cd1fd0a4f28419497f9722a3daafe3b4186f6b6457e090600090a35050565b82805462000103906200019b565b90600052602060002090601f01602090048101928262000127576000855562000172565b82601f106200014257805160ff191683800117855562000172565b8280016001018555821562000172579182015b828111156200017257825182559160200191906001019062000155565b506200018092915062000184565b5090565b5b8082111562000180576000815560010162000185565b600181811c90821680620001b057607f821691505b60208210811415620001d257634e487b7160e01b600052602260045260246000fd5b50919050565b611ecf80620001e86000396000f3fe608060405234801561001057600080fd5b50600436106101c45760003560e01c806383b54dff116100f9578063b87457b411610097578063c4f66ed111610071578063c4f66ed11461039e578063c87b56dd146103b1578063e985e9c5146103c4578063f2fde38b1461040057600080fd5b8063b87457b414610355578063b88d4fde14610378578063c181f5801461038b57600080fd5b806391b68f22116100d357806391b68f221461031f57806395d89b4114610332578063a22cb4651461033a578063a5e6ca9a1461034d57600080fd5b806383b54dff146102f357806389e6fa5c146102fb5780638da5cb5b1461030e57600080fd5b80634e66b5c01161016657806370c0d7451161014057806370c0d745146102c8578063715018a6146102d057806373d9df03146102d857806383197ef0146102eb57600080fd5b80634e66b5c0146102815780636352211e1461029457806370a08231146102a757600080fd5b8063095ea7b3116101a2578063095ea7b31461023157806323b872dd146102465780633891fa641461025957806342842e0e1461026e57600080fd5b806301ffc9a7146101c957806306fdde03146101f1578063081812fc14610206575b600080fd5b6101dc6101d736600461185b565b610413565b60405190151581526020015b60405180910390f35b6101f9610465565b6040516101e891906118d7565b6102196102143660046118ea565b6104f7565b6040516001600160a01b0390911681526020016101e8565b61024461023f36600461191f565b61051e565b005b610244610254366004611949565b610639565b61026161066a565b6040516101e89190611985565b61024461027c366004611949565b6106cd565b61024461028f3660046119c9565b6106e8565b6102196102a23660046118ea565b610711565b6102ba6102b53660046119c9565b610771565b6040519081526020016101e8565b6102616107f7565b610244610856565b6102446102e63660046119c9565b61086a565b610244610896565b6102616108ac565b6102446103093660046118ea565b610902565b6006546001600160a01b0316610219565b61024461032d366004611a80565b6109ee565b6101f9610b5c565b610244610348366004611ae2565b610b6b565b610261610b7a565b6101dc6103633660046119c9565b60096020526000908152604090205460ff1681565b610244610386366004611b0c565b610bdc565b61024461039936600461191f565b610c14565b6102ba6103ac3660046118ea565b610c80565b6101f96103bf3660046118ea565b610ca1565b6101dc6103d2366004611b88565b6001600160a01b03918216600090815260056020908152604080832093909416825291909152205460ff1690565b61024461040e3660046119c9565b610df9565b60006001600160e01b031982166380ac58cd60e01b148061044457506001600160e01b03198216635b5e139f60e01b145b8061045f57506301ffc9a760e01b6001600160e01b03198316145b92915050565b60606000805461047490611bb2565b80601f01602080910402602001604051908101604052809291908181526020018280546104a090611bb2565b80156104ed5780601f106104c2576101008083540402835291602001916104ed565b820191906000526020600020905b8154815290600101906020018083116104d057829003601f168201915b5050505050905090565b600061050282610e72565b506000908152600460205260409020546001600160a01b031690565b600061052982610711565b9050806001600160a01b0316836001600160a01b0316141561059c5760405162461bcd60e51b815260206004820152602160248201527f4552433732313a20617070726f76616c20746f2063757272656e74206f776e656044820152603960f91b60648201526084015b60405180910390fd5b336001600160a01b03821614806105b857506105b881336103d2565b61062a5760405162461bcd60e51b815260206004820152603d60248201527f4552433732313a20617070726f76652063616c6c6572206973206e6f7420746f60448201527f6b656e206f776e6572206f7220617070726f76656420666f7220616c6c0000006064820152608401610593565b6106348383610ed1565b505050565b6106433382610f3f565b61065f5760405162461bcd60e51b815260040161059390611bed565b610634838383610fbe565b336000908152600b60209081526040918290206001018054835181840281018401909452808452606093928301828280156104ed57602002820191906000526020600020905b8154815260200190600101908083116106b0575050505050905090565b61063483838360405180602001604052806000815250610bdc565b6106f061112f565b6001600160a01b03166000908152600960205260409020805460ff19169055565b6000818152600260205260408120546001600160a01b03168061045f5760405162461bcd60e51b8152602060048201526018602482015277115490cdcc8c4e881a5b9d985b1a59081d1bdad95b88125160421b6044820152606401610593565b60006001600160a01b0382166107db5760405162461bcd60e51b815260206004820152602960248201527f4552433732313a2061646472657373207a65726f206973206e6f7420612076616044820152683634b21037bbb732b960b91b6064820152608401610593565b506001600160a01b031660009081526003602052604090205490565b336000908152600b60209081526040918290208054835181840281018401909452808452606093928301828280156104ed57602002820191906000526020600020908154815260200190600101908083116106b0575050505050905090565b61085e61112f565b6108686000611189565b565b61087261112f565b6001600160a01b03166000908152600960205260409020805460ff19166001179055565b61089e61112f565b6006546001600160a01b0316ff5b606060088054806020026020016040519081016040528092919081815260200182805480156104ed57602002820191906000526020600020908154815260200190600101908083116106b0575050505050905090565b61090a61112f565b60085481106109525760405162461bcd60e51b81526020600482015260146024820152732ab83137bc1d1027baba1037b3103137bab7321760611b6044820152606401610593565b805b60085461096390600190611c50565b8110156109c3576008610977826001611c67565b8154811061098757610987611c7f565b9060005260206000200154600882815481106109a5576109a5611c7f565b600091825260209091200155806109bb81611c95565b915050610954565b5060088054806109d5576109d5611cb0565b6001900381819060005260206000200160009055905550565b3360009081526009602052604090205460ff1615610a4e5760405162461bcd60e51b815260206004820152601b60248201527f5570626f783a20596f752061726520626c61636b6c69737465642e00000000006044820152606401610593565b610a5c600780546001019055565b6000610a6760075490565b6000818152600a602090815260409091208551929350610a8b9290918601906117ac565b50610a9633826111db565b8115610ac657336000908152600b6020908152604082206001908101805491820181558352912001819055610b1e565b336000908152600b6020908152604082208054600181810183559184529183209091018390556008805491820181559091527ff3f7a9fe364faab93b216da50a3214154f22a0a2b415b23a84c8169e8b636ee3018190555b60408051338152602081018390527f52a5e47232258119382e5fc7b7f1aeee2246eda849f54f32d8e7a48dbf337113910160405180910390a1505050565b60606001805461047490611bb2565b610b763383836111f5565b5050565b336000908152600b60209081526040918290206002018054835181840281018401909452808452606093928301828280156104ed57602002820191906000526020600020908154815260200190600101908083116106b0575050505050905090565b610be63383610f3f565b610c025760405162461bcd60e51b815260040161059390611bed565b610c0e848484846112c4565b50505050565b6001600160a01b0382166000818152600b60209081526040808320600201805460018101825590845292829020909201849055815192835282018390527f5d1346b6d89ee993d36c689e1ec642d2e6bc07ea2dfffded0fff0e5109abd675910160405180910390a15050565b60088181548110610c9057600080fd5b600091825260209091200154905081565b60606000610cae83610711565b6001600160a01b03161415610d055760405162461bcd60e51b815260206004820152601c60248201527f5570626f783a20546f6b656e20646f6573206e6f742065786973742e000000006044820152606401610593565b6000828152600a602052604081208054610d1e90611bb2565b80601f0160208091040260200160405190810160405280929190818152602001828054610d4a90611bb2565b8015610d975780601f10610d6c57610100808354040283529160200191610d97565b820191906000526020600020905b815481529060010190602001808311610d7a57829003601f168201915b50505050509050600081604051602001610db19190611cc6565b60405160208183030381529060405290506000610dcd826112f7565b905080604051602001610de09190611ce2565b6040516020818303038152906040529350505050919050565b610e0161112f565b6001600160a01b038116610e665760405162461bcd60e51b815260206004820152602660248201527f4f776e61626c653a206e6577206f776e657220697320746865207a65726f206160448201526564647265737360d01b6064820152608401610593565b610e6f81611189565b50565b6000818152600260205260409020546001600160a01b0316610e6f5760405162461bcd60e51b8152602060048201526018602482015277115490cdcc8c4e881a5b9d985b1a59081d1bdad95b88125160421b6044820152606401610593565b600081815260046020526040902080546001600160a01b0319166001600160a01b0384169081179091558190610f0682610711565b6001600160a01b03167f8c5be1e5ebec7d5bd14f71427d1e84f3dd0314c0f7b2291e5b200ac8c7c3b92560405160405180910390a45050565b600080610f4b83610711565b9050806001600160a01b0316846001600160a01b03161480610f9257506001600160a01b0380821660009081526005602090815260408083209388168352929052205460ff165b80610fb65750836001600160a01b0316610fab846104f7565b6001600160a01b0316145b949350505050565b826001600160a01b0316610fd182610711565b6001600160a01b031614610ff75760405162461bcd60e51b815260040161059390611d27565b6001600160a01b0382166110595760405162461bcd60e51b8152602060048201526024808201527f4552433732313a207472616e7366657220746f20746865207a65726f206164646044820152637265737360e01b6064820152608401610593565b611066838383600161144b565b826001600160a01b031661107982610711565b6001600160a01b03161461109f5760405162461bcd60e51b815260040161059390611d27565b600081815260046020908152604080832080546001600160a01b03199081169091556001600160a01b0387811680865260038552838620805460001901905590871680865283862080546001019055868652600290945282852080549092168417909155905184937fddf252ad1be2c89b69c2b068fc378daa952ba7f163c4a11628f55a4df523b3ef91a4505050565b6006546001600160a01b031633146108685760405162461bcd60e51b815260206004820181905260248201527f4f776e61626c653a2063616c6c6572206973206e6f7420746865206f776e65726044820152606401610593565b600680546001600160a01b038381166001600160a01b0319831681179093556040519116919082907f8be0079c531659141344cd1fd0a4f28419497f9722a3daafe3b4186f6b6457e090600090a35050565b610b768282604051806020016040528060008152506114d3565b816001600160a01b0316836001600160a01b031614156112575760405162461bcd60e51b815260206004820152601960248201527f4552433732313a20617070726f766520746f2063616c6c6572000000000000006044820152606401610593565b6001600160a01b03838116600081815260056020908152604080832094871680845294825291829020805460ff191686151590811790915591519182527f17307eab39ab6107e8899845ad3d59bd9653f200f220920489ca2b5937696c31910160405180910390a3505050565b6112cf848484610fbe565b6112db84848484611506565b610c0e5760405162461bcd60e51b815260040161059390611d6c565b606081516000141561131757505060408051602081019091526000815290565b6000604051806060016040528060408152602001611e5a60409139905060006003845160026113469190611c67565b6113509190611dbe565b61135b906004611de0565b67ffffffffffffffff811115611373576113736119e4565b6040519080825280601f01601f19166020018201604052801561139d576020820181803683370190505b509050600182016020820185865187015b80821015611409576003820191508151603f8160121c168501518453600184019350603f81600c1c168501518453600184019350603f8160061c168501518453600184019350603f81168501518453506001830192506113ae565b5050600386510660018114611425576002811461143857611440565b603d6001830353603d6002830353611440565b603d60018303535b509195945050505050565b6001811115610c0e576001600160a01b03841615611491576001600160a01b0384166000908152600360205260408120805483929061148b908490611c50565b90915550505b6001600160a01b03831615610c0e576001600160a01b038316600090815260036020526040812080548392906114c8908490611c67565b909155505050505050565b6114dd8383611613565b6114ea6000848484611506565b6106345760405162461bcd60e51b815260040161059390611d6c565b60006001600160a01b0384163b1561160857604051630a85bd0160e11b81526001600160a01b0385169063150b7a029061154a903390899088908890600401611dff565b602060405180830381600087803b15801561156457600080fd5b505af1925050508015611594575060408051601f3d908101601f1916820190925261159191810190611e3c565b60015b6115ee573d8080156115c2576040519150601f19603f3d011682016040523d82523d6000602084013e6115c7565b606091505b5080516115e65760405162461bcd60e51b815260040161059390611d6c565b805181602001fd5b6001600160e01b031916630a85bd0160e11b149050610fb6565b506001949350505050565b6001600160a01b0382166116695760405162461bcd60e51b815260206004820181905260248201527f4552433732313a206d696e7420746f20746865207a65726f20616464726573736044820152606401610593565b6000818152600260205260409020546001600160a01b0316156116ce5760405162461bcd60e51b815260206004820152601c60248201527f4552433732313a20746f6b656e20616c7265616479206d696e746564000000006044820152606401610593565b6116dc60008383600161144b565b6000818152600260205260409020546001600160a01b0316156117415760405162461bcd60e51b815260206004820152601c60248201527f4552433732313a20746f6b656e20616c7265616479206d696e746564000000006044820152606401610593565b6001600160a01b038216600081815260036020908152604080832080546001019055848352600290915280822080546001600160a01b0319168417905551839291907fddf252ad1be2c89b69c2b068fc378daa952ba7f163c4a11628f55a4df523b3ef908290a45050565b8280546117b890611bb2565b90600052602060002090601f0160209004810192826117da5760008555611820565b82601f106117f357805160ff1916838001178555611820565b82800160010185558215611820579182015b82811115611820578251825591602001919060010190611805565b5061182c929150611830565b5090565b5b8082111561182c5760008155600101611831565b6001600160e01b031981168114610e6f57600080fd5b60006020828403121561186d57600080fd5b813561187881611845565b9392505050565b60005b8381101561189a578181015183820152602001611882565b83811115610c0e5750506000910152565b600081518084526118c381602086016020860161187f565b601f01601f19169290920160200192915050565b60208152600061187860208301846118ab565b6000602082840312156118fc57600080fd5b5035919050565b80356001600160a01b038116811461191a57600080fd5b919050565b6000806040838503121561193257600080fd5b61193b83611903565b946020939093013593505050565b60008060006060848603121561195e57600080fd5b61196784611903565b925061197560208501611903565b9150604084013590509250925092565b6020808252825182820181905260009190848201906040850190845b818110156119bd578351835292840192918401916001016119a1565b50909695505050505050565b6000602082840312156119db57600080fd5b61187882611903565b634e487b7160e01b600052604160045260246000fd5b600067ffffffffffffffff80841115611a1557611a156119e4565b604051601f8501601f19908116603f01168101908282118183101715611a3d57611a3d6119e4565b81604052809350858152868686011115611a5657600080fd5b858560208301376000602087830101525050509392505050565b8035801515811461191a57600080fd5b60008060408385031215611a9357600080fd5b823567ffffffffffffffff811115611aaa57600080fd5b8301601f81018513611abb57600080fd5b611aca858235602084016119fa565b925050611ad960208401611a70565b90509250929050565b60008060408385031215611af557600080fd5b611afe83611903565b9150611ad960208401611a70565b60008060008060808587031215611b2257600080fd5b611b2b85611903565b9350611b3960208601611903565b925060408501359150606085013567ffffffffffffffff811115611b5c57600080fd5b8501601f81018713611b6d57600080fd5b611b7c878235602084016119fa565b91505092959194509250565b60008060408385031215611b9b57600080fd5b611ba483611903565b9150611ad960208401611903565b600181811c90821680611bc657607f821691505b60208210811415611be757634e487b7160e01b600052602260045260246000fd5b50919050565b6020808252602d908201527f4552433732313a2063616c6c6572206973206e6f7420746f6b656e206f776e6560408201526c1c881bdc88185c1c1c9bdd9959609a1b606082015260800190565b634e487b7160e01b600052601160045260246000fd5b600082821015611c6257611c62611c3a565b500390565b60008219821115611c7a57611c7a611c3a565b500190565b634e487b7160e01b600052603260045260246000fd5b6000600019821415611ca957611ca9611c3a565b5060010190565b634e487b7160e01b600052603160045260246000fd5b60008251611cd881846020870161187f565b9190910192915050565b7f646174613a6170706c69636174696f6e2f6a736f6e3b6261736536342c000000815260008251611d1a81601d85016020870161187f565b91909101601d0192915050565b60208082526025908201527f4552433732313a207472616e736665722066726f6d20696e636f72726563742060408201526437bbb732b960d91b606082015260800190565b60208082526032908201527f4552433732313a207472616e7366657220746f206e6f6e20455243373231526560408201527131b2b4bb32b91034b6b83632b6b2b73a32b960711b606082015260800190565b600082611ddb57634e487b7160e01b600052601260045260246000fd5b500490565b6000816000190483118215151615611dfa57611dfa611c3a565b500290565b6001600160a01b0385811682528416602082015260408101839052608060608201819052600090611e32908301846118ab565b9695505050505050565b600060208284031215611e4e57600080fd5b81516118788161184556fe4142434445464748494a4b4c4d4e4f505152535455565758595a6162636465666768696a6b6c6d6e6f707172737475767778797a303132333435363738392b2fa264697066735822122045bdc5458d3fbe0dde69cbbdd7a63abe829292acc8e0f38f9cd5127fd25bc6bd64736f6c63430008090033",
  "linkReferences": {},
  "deployedLinkReferences": {}
}